{
  "contractName": "Reward",
  "abi": [
    {
      "inputs": [],
      "stateMutability": "nonpayable",
      "type": "constructor"
    },
    {
      "inputs": [
        {
          "internalType": "uint256",
          "name": "_requested",
          "type": "uint256"
        },
        {
          "internalType": "uint256",
          "name": "_allowed",
          "type": "uint256"
        }
      ],
      "name": "InsufficientAllowance",
      "type": "error"
    },
    {
      "inputs": [
        {
          "internalType": "uint256",
          "name": "_demand",
          "type": "uint256"
        },
        {
          "internalType": "uint256",
          "name": "_supply",
          "type": "uint256"
        }
      ],
      "name": "InsufficientFunds",
      "type": "error"
    },
    {
      "anonymous": false,
      "inputs": [
        {
          "indexed": true,
          "internalType": "address",
          "name": "_owner",
          "type": "address"
        },
        {
          "indexed": true,
          "internalType": "address",
          "name": "_spender",
          "type": "address"
        },
        {
          "indexed": false,
          "internalType": "uint256",
          "name": "_value",
          "type": "uint256"
        }
      ],
      "name": "Approval",
      "type": "event"
    },
    {
      "anonymous": false,
      "inputs": [
        {
          "indexed": true,
          "internalType": "address",
          "name": "_from",
          "type": "address"
        },
        {
          "indexed": true,
          "internalType": "address",
          "name": "_to",
          "type": "address"
        },
        {
          "indexed": false,
          "internalType": "uint256",
          "name": "_value",
          "type": "uint256"
        }
      ],
      "name": "Transfer",
      "type": "event"
    },
    {
      "inputs": [
        {
          "internalType": "address",
          "name": "",
          "type": "address"
        },
        {
          "internalType": "address",
          "name": "",
          "type": "address"
        }
      ],
      "name": "allowance",
      "outputs": [
        {
          "internalType": "uint256",
          "name": "",
          "type": "uint256"
        }
      ],
      "stateMutability": "view",
      "type": "function",
      "constant": true
    },
    {
      "inputs": [
        {
          "internalType": "address",
          "name": "",
          "type": "address"
        }
      ],
      "name": "balance",
      "outputs": [
        {
          "internalType": "uint256",
          "name": "",
          "type": "uint256"
        }
      ],
      "stateMutability": "view",
      "type": "function",
      "constant": true
    },
    {
      "inputs": [],
      "name": "decimals",
      "outputs": [
        {
          "internalType": "uint8",
          "name": "",
          "type": "uint8"
        }
      ],
      "stateMutability": "view",
      "type": "function",
      "constant": true
    },
    {
      "inputs": [],
      "name": "name",
      "outputs": [
        {
          "internalType": "string",
          "name": "",
          "type": "string"
        }
      ],
      "stateMutability": "view",
      "type": "function",
      "constant": true
    },
    {
      "inputs": [],
      "name": "symbol",
      "outputs": [
        {
          "internalType": "string",
          "name": "",
          "type": "string"
        }
      ],
      "stateMutability": "view",
      "type": "function",
      "constant": true
    },
    {
      "inputs": [],
      "name": "totalSupply",
      "outputs": [
        {
          "internalType": "uint256",
          "name": "",
          "type": "uint256"
        }
      ],
      "stateMutability": "view",
      "type": "function",
      "constant": true
    },
    {
      "inputs": [
        {
          "internalType": "address",
          "name": "_receiver",
          "type": "address"
        },
        {
          "internalType": "uint256",
          "name": "_value",
          "type": "uint256"
        }
      ],
      "name": "transfer",
      "outputs": [
        {
          "internalType": "bool",
          "name": "success",
          "type": "bool"
        }
      ],
      "stateMutability": "nonpayable",
      "type": "function"
    },
    {
      "inputs": [
        {
          "internalType": "address",
          "name": "_spender",
          "type": "address"
        },
        {
          "internalType": "uint256",
          "name": "_value",
          "type": "uint256"
        }
      ],
      "name": "setAllowance",
      "outputs": [
        {
          "internalType": "bool",
          "name": "success",
          "type": "bool"
        }
      ],
      "stateMutability": "nonpayable",
      "type": "function"
    },
    {
      "inputs": [
        {
          "internalType": "address",
          "name": "_sender",
          "type": "address"
        },
        {
          "internalType": "address",
          "name": "_receiver",
          "type": "address"
        },
        {
          "internalType": "uint256",
          "name": "_value",
          "type": "uint256"
        }
      ],
      "name": "transferFrom",
      "outputs": [
        {
          "internalType": "bool",
          "name": "success",
          "type": "bool"
        }
      ],
      "stateMutability": "nonpayable",
      "type": "function"
    }
  ],
  "bytecode": "0x60806040526040518060400160405280600c81526020017f52657761726420546f6b656e0000000000000000000000000000000000000000815250600090805190602001906200005192919062000124565b506040518060400160405280600381526020017f5257440000000000000000000000000000000000000000000000000000000000815250600190805190602001906200009f92919062000124565b5069d3c21bcecceda10000006002556012600360006101000a81548160ff021916908360ff160217905550348015620000d757600080fd5b50600254600460003373ffffffffffffffffffffffffffffffffffffffff1673ffffffffffffffffffffffffffffffffffffffff1681526020019081526020016000208190555062000238565b828054620001329062000203565b90600052602060002090601f016020900481019282620001565760008555620001a2565b82601f106200017157805160ff1916838001178555620001a2565b82800160010185558215620001a2579182015b82811115620001a157825182559160200191906001019062000184565b5b509050620001b19190620001b5565b5090565b5b80821115620001d0576000816000905550600101620001b6565b5090565b7f4e487b7100000000000000000000000000000000000000000000000000000000600052602260045260246000fd5b600060028204905060018216806200021c57607f821691505b602082108103620002325762000231620001d4565b5b50919050565b610e6c80620002486000396000f3fe608060405234801561001057600080fd5b50600436106100935760003560e01c8063313ce56711610066578063313ce5671461013457806395d89b4114610152578063a9059cbb14610170578063dd62ed3e146101a0578063e3d670d7146101d057610093565b806306fdde031461009857806318160ddd146100b657806323b872dd146100d4578063310ec4a714610104575b600080fd5b6100a0610200565b6040516100ad9190610aa2565b60405180910390f35b6100be61028e565b6040516100cb9190610add565b60405180910390f35b6100ee60048036038101906100e99190610b87565b610294565b6040516100fb9190610bf5565b60405180910390f35b61011e60048036038101906101199190610c10565b610653565b60405161012b9190610bf5565b60405180910390f35b61013c610745565b6040516101499190610c6c565b60405180910390f35b61015a610758565b6040516101679190610aa2565b60405180910390f35b61018a60048036038101906101859190610c10565b6107e6565b6040516101979190610bf5565b60405180910390f35b6101ba60048036038101906101b59190610c87565b6109cc565b6040516101c79190610add565b60405180910390f35b6101ea60048036038101906101e59190610cc7565b6109f1565b6040516101f79190610add565b60405180910390f35b6000805461020d90610d23565b80601f016020809104026020016040519081016040528092919081815260200182805461023990610d23565b80156102865780601f1061025b57610100808354040283529160200191610286565b820191906000526020600020905b81548152906001019060200180831161026957829003601f168201915b505050505081565b60025481565b60008382600460008373ffffffffffffffffffffffffffffffffffffffff1673ffffffffffffffffffffffffffffffffffffffff1681526020019081526020016000205481111561035d5780600460008473ffffffffffffffffffffffffffffffffffffffff1673ffffffffffffffffffffffffffffffffffffffff168152602001908152602001600020546040517f03eb8b54000000000000000000000000000000000000000000000000000000008152600401610354929190610d54565b60405180910390fd5b338685600560008373ffffffffffffffffffffffffffffffffffffffff1673ffffffffffffffffffffffffffffffffffffffff16815260200190815260200160002060008473ffffffffffffffffffffffffffffffffffffffff1673ffffffffffffffffffffffffffffffffffffffff1681526020019081526020016000205481111561049f5780600560008473ffffffffffffffffffffffffffffffffffffffff1673ffffffffffffffffffffffffffffffffffffffff16815260200190815260200160002060008573ffffffffffffffffffffffffffffffffffffffff1673ffffffffffffffffffffffffffffffffffffffff168152602001908152602001600020546040517f2a1b2dd8000000000000000000000000000000000000000000000000000000008152600401610496929190610d54565b60405180910390fd5b86600460008b73ffffffffffffffffffffffffffffffffffffffff1673ffffffffffffffffffffffffffffffffffffffff16815260200190815260200160002060008282546104ee9190610dac565b9250508190555086600560008b73ffffffffffffffffffffffffffffffffffffffff1673ffffffffffffffffffffffffffffffffffffffff16815260200190815260200160002060003373ffffffffffffffffffffffffffffffffffffffff1673ffffffffffffffffffffffffffffffffffffffff16815260200190815260200160002060008282546105819190610dac565b9250508190555086600460008a73ffffffffffffffffffffffffffffffffffffffff1673ffffffffffffffffffffffffffffffffffffffff16815260200190815260200160002060008282546105d79190610de0565b925050819055508773ffffffffffffffffffffffffffffffffffffffff168973ffffffffffffffffffffffffffffffffffffffff167fddf252ad1be2c89b69c2b068fc378daa952ba7f163c4a11628f55a4df523b3ef8960405161063b9190610add565b60405180910390a36001955050505050509392505050565b600081600560003373ffffffffffffffffffffffffffffffffffffffff1673ffffffffffffffffffffffffffffffffffffffff16815260200190815260200160002060008573ffffffffffffffffffffffffffffffffffffffff1673ffffffffffffffffffffffffffffffffffffffff168152602001908152602001600020819055508273ffffffffffffffffffffffffffffffffffffffff163373ffffffffffffffffffffffffffffffffffffffff167f8c5be1e5ebec7d5bd14f71427d1e84f3dd0314c0f7b2291e5b200ac8c7c3b925846040516107339190610add565b60405180910390a36001905092915050565b600360009054906101000a900460ff1681565b6001805461076590610d23565b80601f016020809104026020016040519081016040528092919081815260200182805461079190610d23565b80156107de5780601f106107b3576101008083540402835291602001916107de565b820191906000526020600020905b8154815290600101906020018083116107c157829003601f168201915b505050505081565b60003382600460008373ffffffffffffffffffffffffffffffffffffffff1673ffffffffffffffffffffffffffffffffffffffff168152602001908152602001600020548111156108af5780600460008473ffffffffffffffffffffffffffffffffffffffff1673ffffffffffffffffffffffffffffffffffffffff168152602001908152602001600020546040517f03eb8b540000000000000000000000000000000000000000000000000000000081526004016108a6929190610d54565b60405180910390fd5b83600460003373ffffffffffffffffffffffffffffffffffffffff1673ffffffffffffffffffffffffffffffffffffffff16815260200190815260200160002060008282546108fe9190610dac565b9250508190555083600460008773ffffffffffffffffffffffffffffffffffffffff1673ffffffffffffffffffffffffffffffffffffffff16815260200190815260200160002060008282546109549190610de0565b925050819055508473ffffffffffffffffffffffffffffffffffffffff163373ffffffffffffffffffffffffffffffffffffffff167fddf252ad1be2c89b69c2b068fc378daa952ba7f163c4a11628f55a4df523b3ef866040516109b89190610add565b60405180910390a360019250505092915050565b6005602052816000526040600020602052806000526040600020600091509150505481565b60046020528060005260406000206000915090505481565b600081519050919050565b600082825260208201905092915050565b60005b83811015610a43578082015181840152602081019050610a28565b83811115610a52576000848401525b50505050565b6000601f19601f8301169050919050565b6000610a7482610a09565b610a7e8185610a14565b9350610a8e818560208601610a25565b610a9781610a58565b840191505092915050565b60006020820190508181036000830152610abc8184610a69565b905092915050565b6000819050919050565b610ad781610ac4565b82525050565b6000602082019050610af26000830184610ace565b92915050565b600080fd5b600073ffffffffffffffffffffffffffffffffffffffff82169050919050565b6000610b2882610afd565b9050919050565b610b3881610b1d565b8114610b4357600080fd5b50565b600081359050610b5581610b2f565b92915050565b610b6481610ac4565b8114610b6f57600080fd5b50565b600081359050610b8181610b5b565b92915050565b600080600060608486031215610ba057610b9f610af8565b5b6000610bae86828701610b46565b9350506020610bbf86828701610b46565b9250506040610bd086828701610b72565b9150509250925092565b60008115159050919050565b610bef81610bda565b82525050565b6000602082019050610c0a6000830184610be6565b92915050565b60008060408385031215610c2757610c26610af8565b5b6000610c3585828601610b46565b9250506020610c4685828601610b72565b9150509250929050565b600060ff82169050919050565b610c6681610c50565b82525050565b6000602082019050610c816000830184610c5d565b92915050565b60008060408385031215610c9e57610c9d610af8565b5b6000610cac85828601610b46565b9250506020610cbd85828601610b46565b9150509250929050565b600060208284031215610cdd57610cdc610af8565b5b6000610ceb84828501610b46565b91505092915050565b7f4e487b7100000000000000000000000000000000000000000000000000000000600052602260045260246000fd5b60006002820490506001821680610d3b57607f821691505b602082108103610d4e57610d4d610cf4565b5b50919050565b6000604082019050610d696000830185610ace565b610d766020830184610ace565b9392505050565b7f4e487b7100000000000000000000000000000000000000000000000000000000600052601160045260246000fd5b6000610db782610ac4565b9150610dc283610ac4565b925082821015610dd557610dd4610d7d565b5b828203905092915050565b6000610deb82610ac4565b9150610df683610ac4565b9250827fffffffffffffffffffffffffffffffffffffffffffffffffffffffffffffffff03821115610e2b57610e2a610d7d565b5b82820190509291505056fea264697066735822122051f2fffc0e6c7618d208ced9eb86d490e97d0b902938fe9c75f07a99d57ed58c64736f6c634300080e0033",
  "immutableReferences": {},
  "source": "// SPDX-License-Identifier: MIT\npragma solidity ^0.8.6;\n\ncontract Reward {\n    // variables\n    string public name = \"Reward Token\";\n    string public symbol = \"RWD\";\n    uint256 public totalSupply = 1000000000000000000000000; // 1 million\n    uint8 public decimals = 18;\n\n    // mappings\n    mapping(address => uint256) public balance;\n    mapping(address => mapping(address => uint256)) public allowance;\n\n    constructor() {\n        balance[msg.sender] = totalSupply;\n    }\n\n    // errors\n    error InsufficientFunds(uint256 _demand, uint256 _supply);\n    error InsufficientAllowance(uint256 _requested, uint256 _allowed);\n\n    // modifiers\n    modifier CheckFunds(address _wallet, uint256 _value) {\n        if (_value > balance[_wallet])\n            revert InsufficientFunds(_value, balance[_wallet]);\n        _;\n    }\n\n    modifier CheckAllowance(\n        address _thirdParty,\n        address _wallet,\n        uint256 _value\n    ) {\n        if (_value > allowance[_wallet][_thirdParty])\n            revert InsufficientAllowance(\n                _value,\n                allowance[_wallet][_thirdParty]\n            );\n        _;\n    }\n\n    // events\n    event Transfer(address indexed _from, address indexed _to, uint256 _value);\n\n    event Approval(\n        address indexed _owner,\n        address indexed _spender,\n        uint256 _value\n    );\n\n    // functions\n    function transfer(address _receiver, uint256 _value)\n        public\n        CheckFunds(msg.sender, _value)\n        returns (bool success)\n    {\n        balance[msg.sender] -= _value;\n        balance[_receiver] += _value;\n\n        emit Transfer(msg.sender, _receiver, _value);\n        return true;\n    }\n\n    function setAllowance(address _spender, uint256 _value)\n        public\n        returns (bool success)\n    {\n        allowance[msg.sender][_spender] = _value;\n\n        emit Approval(msg.sender, _spender, _value);\n        return true;\n    }\n\n    function transferFrom(\n        address _sender,\n        address _receiver,\n        uint256 _value\n    )\n        public\n        CheckFunds(_sender, _value)\n        CheckAllowance(msg.sender, _sender, _value)\n        returns (bool success)\n    {\n        balance[_sender] -= _value;\n        allowance[_sender][msg.sender] -= _value;\n        balance[_receiver] += _value;\n\n        emit Transfer(_sender, _receiver, _value);\n        return true;\n    }\n}\n",
  "sourcePath": "/Users/black_trojan/Desktop/defi-staking-app-starter/defi-staking-app-starter/src/contracts/Reward.sol",
  "compiler": {
    "name": "solc",
    "version": "0.8.14+commit.80d49f37.Emscripten.clang"
  },
  "schemaVersion": "3.4.7",
  "updatedAt": "2022-05-23T08:12:05.353Z",
  "networkType": "ethereum",
  "devdoc": {
    "kind": "dev",
    "methods": {},
    "version": 1
  },
  "userdoc": {
    "kind": "user",
    "methods": {},
    "version": 1
  }
}